:100000000C9434000C9453000C9451000C94510047
:100010000C9451000C9451000C9451000C9451001C
:100020000C9451000C9451000C9451000C9451000C
:100030000C9451000C9451000C9451000C945100FC
:100040000C9451000C9451000C9451000C945100EC
:100050000C9451000C9451000C9451000C945100DC
:100060000C9451000C94510011241FBECFEFD8E026
:10007000DEBFCDBF11E0A0E0B1E0E2E6F9E002C0F2
:1000800005900D92AC37B107D9F721E0ACE7B1E0AC
:1000900001C01D92A738B207E1F70E9404030C9437
:1000A000AF040C9400001F920F920FB60F92112410
:1000B0008F9380917C01813011F480937D018F9129
:1000C0000F900FBE0F901F90189580E480937C00D6
:1000D00087E880937A00089580917A008064809305
:1000E0007A0080917A0086FDFCCF80917800909113
:1000F0007900089588E08093C10086E08093C20073
:100100001092C50087E68093C40008959091C000C6
:1001100095FFFCCF8093C600089588E48093B800D3
:100120001092B90084E08093BC00089584EA809323
:10013000BC008091BC0087FFFCCF089584E98093C8
:10014000BC008091BC0084FDFCCF08958093BB006F
:1001500084E88093BC008091BC0087FFFCCF0895A9
:10016000CF93C82F0E94960088E70E94A60080E0E7
:100170000E94A6008C2F0E94A600CF910C949E0096
:100180000F931F93CF93DF93C62F042F80550E94A8
:10019000B0008C2F8F700E94B0008C2F82958F70D2
:1001A000805F0E94B0000E94960088E70E94A6002F
:1001B00080E40E94A60085E0089F80011124C0E031
:1001C000D0E0FE01E00FF11FE85EFE4F80810E944B
:1001D000A6002196C530D105A1F780E00E94A600B7
:1001E000DF91CF911F910F910C949E00AF92BF921F
:1001F000CF92DF92EF92FF920F931F93CF93DF93F3
:10020000C42ED22F8C015C01A60EB11CCC2D0A1578
:100210001B0529F1F80141918F014F3F11F4DE5F79
:10022000F5CF4E3FB1F4DC2EE12CF12CF701E0507C
:10023000FF4F40816D2D8D2F0E94C000F6E0DF0E34
:100240008FEFE81AF80AE3E0EE16F10479F7CE5ED4
:10025000DECF6C2F8D2F0E94C000CA5FD8CFDF91F8
:10026000CF911F910F91FF90EF90DF90CF90BF90B3
:10027000AF900895CF93DF93C0EB8C2F0E94B00016
:1002800080E00E94B00080E10E94B0000E949600D1
:1002900088E70E94A60080E40E94A600D0E080E0EB
:1002A0000E94A600DF5FD038D1F70E949E00CF5F8A
:1002B000C83B19F7DF91CF9108952FEF81EE94E0BD
:1002C000215080409040E1F700C000008EEA0E947B
:1002D000B00085ED0E94B00080E80E94B00088EA7E
:1002E0000E94B0008FE30E94B00083ED0E94B00036
:1002F00080E00E94B00080E40E94B00080E20E9492
:10030000B00082E00E94B00080EA0E94B00080EC61
:100310000E94B0008AED0E94B00082E10E94B0000D
:1003200081E80E94B0008FEC0E94B00089ED0E942D
:10033000B00081EF0E94B0008BED0E94B00080E41D
:100340000E94B00084EA0E94B00086EA0E94B000D9
:100350008DE80E94B00084E10E94B0000E943A0142
:100360002FEF81EE94E0215080409040E1F700C0F3
:1003700000008FEA0C94B000CF93DF939C0164E6F9
:1003800070E00E942C04CB01CAE0D0E0BE010E94C4
:100390002C04865FE0E0F1E08083C901BE010E9489
:1003A0002C04282FCB01BE010E942C04865F818380
:1003B000265F2283DF91CF910895CF93DF9368303A
:1003C00068F5D42FC82F80EB860F0E94B0008C2FC9
:1003D0008F700E94B0008C2F82958F70805F0E947A
:1003E000B0000E94960088E70E94A60080E40E9468
:1003F000A600DD2311F0C0E001C0CCE38C2F0E94E9
:10040000A6008C2F0E94A6008C2F0E94A6008C2F85
:100410000E94A600DF91CF910C949E00DF91CF91B6
:1004200008952091030130910401409105015091FC
:1004300006016DE67EE486EC91E40E941004675CA0
:100440007F4C8F4F9F4F6093030170930401809303
:100450000501909306016DE60E942004892F0895FE
:100460004F925F926F927F92AF92BF92CF92DF9244
:10047000EF92FF920F931F93CF93DF93CDB7DEB729
:1004800029013A019B01AC01241935094609570994
:1004900089899A89AB89BC89BC01CD016A197B091C
:1004A0008C099D090E941004A8019701241935099F
:1004B000460957090E944004CA01B9016A0D7B1D13
:1004C0008C1D9D1DDF91CF911F910F91FF90EF909B
:1004D000DF90CF90BF90AF907F906F905F904F90E4
:1004E00008956F927F928F929F92AF92BF92CF9218
:1004F000DF92EF92FF920F931F93CF93DF93CDB7CD
:10050000DEB72F970FB6F894DEBF0FBECDBF182F02
:10051000762E87EB0E94B000812F8F700E94B00072
:10052000812F82958F70805F0E94B0000E9496009C
:1005300088E70E94A60080E40E94A6008E010F5F5B
:100540001F4F8FE0E82E48019FE0692E20EEF22E2B
:1005500030EFD32E48E1B42E5EEFA52ECC24CA9402
:10056000772011F080E015C0F401862D11928A9554
:10057000E9F7F982DA82FB82BC82AD82CE82CF8239
:10058000C886A986BA86FB86DC86DD86FE86F801EB
:1005900080810E94A600EA940F5F1F4FE110E0CF18
:1005A0002F960FB6F894DEBF0FBECDBFDF91CF916F
:1005B0001F910F91FF90EF90DF90CF90BF90AF9081
:1005C0009F908F907F906F900C949E005A9AE9E6CE
:1005D000F0E080818260808380818E7F8083E89AD2
:1005E000089562130FC050E090E09A012D5F3F4FD5
:1005F000281739073CF09C01225F3F4F81E0241708
:1006000035070CF480E00895CF93DF93CDB7DEB7C4
:1006100061970FB6F894DEBF0FBECDBF0E948D006C
:100620000E945D010E9465000E94E60281E1E7E010
:10063000F1E0DE01119601900D928A95E1F780912B
:100640007A00806480937A0080917A0086FDFCCFE6
:100650008091780090917900A0E0B0E08093030150
:1006600090930401A0930501B093060184E1809367
:10067000810181E0809382018CE38093830182E099
:100680008093840184E68093850185E080938601D0
:1006900060E080E00E947102789410E000E0442461
:1006A0004A9483E0582E612C712C94E1E92E2CE3BE
:1006B000922E34E6832E45E0342EF0907C01FF200C
:1006C00029F021E0F21609F461C0F7CF0E946C0016
:1006D0009C01ADE6B0E00E945F04A30192010E947C
:1006E0004004D22EF22E201741F061E0802F0E94AC
:1006F000710260E08D2D0E9471021F5F1431F0F1D4
:1007000001E811E0CF2CD12C56018EE0A80EB11CCF
:1007100041E0F801618180810E94DD01F801818161
:100720008F5F8183873061F4808190E09C012D5F31
:100730003F4F2C153D05ACF0A816B90694F064C0E7
:10074000883078F0F80111820E941102F80180834C
:1007500080917E0190917F01019690937F0180931B
:100760007E0140E0F801618180810E94DD010E5F21
:100770001F4FF1E007381F0759F610E08FE39CE99F
:100780000197F1F700C000000F2D97CF22E045E25E
:1007900061E1CE0101960E94F60080917D018823DF
:1007A00041F110927D0110927F0110927E01E09242
:1007B0008101F09282019092830182E08093840112
:1007C00080928501309286010E943A010E946C005D
:1007D0009C01ADE6B0E00E945F04A30192010E947B
:1007E0004004822F022F60E00E94710210927C016F
:1007F00010E09FEFE0E7F2E09150E040F040E1F7D9
:1008000000C00000F02EC0CF0E943A0180917E010E
:1008100090917F010E94BC0181E080937C01ADCF6B
:10082000DB018F939F930E946E04BF91AF91A29FB3
:10083000800D911DA39F900DB29F900D11240895DE
:10084000991B79E004C0991F961708F0961B881F22
:100850007A95C9F78095089597FB072E16F40094B2
:1008600007D077FD09D00E94790407FC05D03EF43B
:10087000909581959F4F0895709561957F4F08954C
:10088000052E97FB1EF400940E94570457FD07D0D5
:100890000E948D0407FC03D04EF40C94570450952D
:1008A0004095309521953F4F4F4F5F4F089590955C
:1008B0008095709561957F4F8F4F9F4F0895A29FB0
:1008C000B001B39FC001A39F700D811D1124911D24
:1008D000B29F700D811D1124911D08950E945F0427
:1008E000A59F900DB49F900DA49F800D911D112484
:1008F0000895AA1BBB1B51E107C0AA1FBB1FA61767
:10090000B70710F0A61BB70B881F991F5A95A9F7B8
:1009100080959095BC01CD010895A1E21A2EAA1BE5
:10092000BB1BFD010DC0AA1FBB1FEE1FFF1FA2179F
:10093000B307E407F50720F0A21BB30BE40BF50B9C
:10094000661F771F881F991F1A9469F76095709525
:10095000809590959B01AC01BD01CF010895F8945D
:02096000FFCFC7
:100962000A0A0A39300000040105070006020703DB
:10097200FF080906030700FE00000000007E1111B7
:10098200117E3F4080403F7F091929463E41494937
:100992002E7F020C027F3E4141413E7F494949413F
:1009A20024494949323E414141223E5149453E0096
:1009B200427F400042615149462141454B31181462
:1009C200127F1027454545393C4A49493001710992
:0C09D20005033649494936064949291EEB
:00000001FF
